:020000040800F2
:1000000000000320CD580008751900087719000872
:10001000791900087B1900087D190008000000000C
:100020000000000000000000000000007F19000830
:1000300081190008000000008319000885190008D4
:100040001D5900081D5900081D5900081D590008B8
:100050001D5900081D5900081D5900081D590008A8
:100060001D5900081D5900081D5900081D59000898
:100070001D5900081D5900081D5900081D59000888
:100080001D5900081D590008891900081D5900084C
:100090001D5900081D5900081D5900081D59000868
:1000A0001D5900081D5900081D5900081D59000858
:1000B000951900081D5900081D590008A1190008CC
:1000C000AD1900081D5900081D5900081D590008E8
:1000D0001D5900081D5900081D590008B9190008CC
:1000E0001D5900081D5900081D5900081D59000818
:1000F0001D5900081D5900081D5900081D59000808
:100100001D5900081D5900081D5900081D590008F7
:100110001D5900081D5900081D5900081D590008E7
:100120001D5900081D5900081D5900081D590008D7
:100130001D5900081D5900081D5900081D590008C7
:100140001D5900081D5900081D5900081D590008B7
:100150001D5900081D5900081D5900081D590008A7
:100160001D5900081D5900081D5900081D59000897
:100170001D5900081D5900081D5900080000000005
:100180001D5900081D5900081D5900081D59000877
:100190001D5900081D5900081D5900081D59000867
:0C01A0001D5900081D5900081D590008D9
:1001B00010B5054C237833B9044B13B10448AFF3A1
:1001C00000800123237010BDDC010020000000002E
:1001D000806F000808B5034B1BB103490348AFF318
:1001E000008008BD00000000E0010020806F0008D2
:1001F00010F8012B11F8013B012A28BF9A42F7D0D1
:10020000D01A70470000000000000000000000004D
:1002100001F0FF01102A2BDB10F0070F08D010F8B7
:10022000013B013A8B422DD010F0070F42B3F6D1BB
:10023000F0B441EA012141EA014122F007047FF0D4
:1002400000070023F0E80256083C85EA010586EA2B
:10025000010685FA47F5A3FA87F586FA47F6A5FA67
:1002600087F68EB9EED1F0BC01F0FF0102F0070273
:1002700032B110F8013B013A83EA010313B1F8D11E
:100280000020704701387047002D06BF35460338FF
:10029000073815F0010F07D1013015F4807F02BF38
:1002A000013015F4C03F0130F0BC0138704700BF89
:1002B00081F0004102E000BF83F0004330B54FEA17
:1002C00041044FEA430594EA050F08BF90EA020F84
:1002D0001FBF54EA000C55EA020C7FEA645C7FEA17
:1002E000655C00F0E2804FEA5454D4EB5555B8BF3A
:1002F0006D420CDD2C4480EA020281EA030382EAAB
:10030000000083EA010180EA020281EA0303362D3C
:1003100088BF30BD11F0004F4FEA01314FF4801C0F
:100320004CEA113102D0404261EB410113F0004F21
:100330004FEA03334CEA133302D0524263EB4303D8
:1003400094EA050F00F0A780A4F10104D5F1200E76
:100350000DDB02FA0EFC22FA05F2801841F10001D1
:1003600003FA0EF2801843FA05F359410EE0A5F1A5
:1003700020050EF1200E012A03FA0EFC28BF4CF0D6
:10038000020C43FA05F3C01851EBE37101F000458C
:1003900007D54FF0000EDCF1000C7EEB00006EEB99
:1003A0000101B1F5801F1BD3B1F5001F0CD3490823
:1003B0005FEA30004FEA3C0C04F101044FEA44527A
:1003C00012F5800F80F09A80BCF1004F08BF5FEA01
:1003D000500C50F1000041EB045141EA050130BDE1
:1003E0005FEA4C0C404141EB010111F4801FA4F184
:1003F0000104E9D191F0000F04BF01460020B1FAD9
:1004000081F308BF2033A3F10B03B3F120020CDA10
:100410000C3208DD02F1140CC2F10C0201FA0CF0EE
:1004200021FA02F10CE002F11402D8BFC2F1200C53
:1004300001FA02F120FA0CFCDCBF41EA0C01904009
:10044000E41AA2BF01EB0451294330BD6FEA040452
:100450001F3C1CDA0C340EDC04F11404C4F120023D
:1004600020FA04F001FA02F340EA030021FA04F34F
:1004700045EA030130BDC4F10C04C4F1200220FAA6
:1004800002F001FA04F340EA0300294630BD21FAE4
:1004900004F0294630BD94F0000F83F4801306BFAA
:1004A00081F480110134013D4EE77FEA645C18BF9E
:1004B0007FEA655C29D094EA050F08BF90EA020F35
:1004C00005D054EA000C04BF1946104630BD91EA2D
:1004D000030F1EBF0021002030BD5FEA545C05D130
:1004E0004000494128BF41F0004130BD14F580046F
:1004F0003CBF01F5801130BD01F0004545F0FE41E3
:1005000041F470014FF0000030BD7FEA645C1ABF17
:10051000194610467FEA655C1CBF0B46024650EA4E
:10052000013406BF52EA033591EA030F41F400217A
:1005300030BD00BF90F0000F04BF0021704730B500
:100540004FF4806404F132044FF000054FF00001D5
:1005500050E700BF90F0000F04BF0021704730B596
:100560004FF4806404F1320410F0004548BF40426B
:100570004FF000013EE700BF42004FEAE2014FEAC0
:1005800031014FEA02701FBF12F07F4393F07F4F9B
:1005900081F06051704792F0000F14BF93F07F4FCD
:1005A000704730B54FF4607401F0004521F0004110
:1005B00020E700BF50EA010208BF704730B54FF096
:1005C00000050AE050EA010208BF704730B511F09B
:1005D000004502D5404261EB41014FF4806404F1D3
:1005E00032045FEA915C3FF4DCAE4FF003025FEA55
:1005F000DC0C18BF03325FEADC0C18BF033202EBDD
:10060000DC02C2F1200300FA03FC20FA02F001FA36
:1006100003FE40EA0E0021FA02F11444C1E600BFD5
:1006200070B54FF0FF0C4CF4E06C1CEA11541DBF88
:100630001CEA135594EA0C0F95EA0C0F00F0DEF853
:100640002C4481EA030621EA4C5123EA4C5350EA38
:10065000013518BF52EA033541F4801143F4801389
:1006600038D0A0FB02CE4FF00005E1FB02E506F01A
:100670000042E0FB03E54FF00006E1FB03569CF06F
:10068000000F18BF4EF0010EA4F1FF04B6F5007F75
:1006900064F5407404D25FEA4E0E6D4146EB0606E7
:1006A00042EAC62141EA55514FEAC52040EA5E5070
:1006B0004FEACE2EB4F1FD0C88BFBCF5E06F1ED81A
:1006C000BEF1004F08BF5FEA500E50F1000041EB51
:1006D000045170BD06F0004646EA010140EA0200FE
:1006E00081EA0301B4EB5C04C2BFD4EB0C0541EA20
:1006F000045170BD41F480114FF0000E013C00F335
:10070000AB8014F1360FDEBF002001F0004170BD58
:10071000C4F10004203C35DA0C341BDC04F1140471
:10072000C4F1200500FA05F320FA04F001FA05F2FD
:1007300040EA020001F0004221F0004110EBD370CA
:1007400021FA04F642EB06015EEA430E08BF20EAF6
:10075000D37070BDC4F10C04C4F1200500FA04F399
:1007600020FA05F001FA04F240EA020001F000412B
:1007700010EBD37041F100015EEA430E08BF20EA9E
:10078000D37070BDC4F1200500FA05F24EEA020EE6
:1007900020FA04F301FA05F243EA020321FA04F015
:1007A00001F0004121FA04F220EA020000EBD370CC
:1007B0005EEA430E08BF20EAD37070BD94F0000FCC
:1007C0000FD101F00046400041EB010111F4801F00
:1007D00008BF013CF7D041EA060195F0000F18BFB1
:1007E000704703F00046520043EB030313F4801FED
:1007F00008BF013DF7D043EA0603704794EA0C0FA7
:100800000CEA135518BF95EA0C0F0CD050EA4106BC
:1008100018BF52EA4306D1D181EA030101F0004139
:100820004FF0000070BD50EA410606BF1046194661
:1008300052EA430619D094EA0C0F02D150EA01366D
:1008400013D195EA0C0F05D152EA03361CBF1046AE
:1008500019460AD181EA030101F0004141F0FE414D
:1008600041F470014FF0000070BD41F0FE4141F4D1
:10087000780170BD70B54FF0FF0C4CF4E06C1CEAD1
:1008800011541DBF1CEA135594EA0C0F95EA0C0F86
:1008900000F0A7F8A4EB050481EA030E52EA033541
:1008A0004FEA013100F088804FEA03334FF0805562
:1008B00045EA131343EA12634FEA022245EA11158F
:1008C00045EA10654FEA00260EF000419D4208BF40
:1008D000964244F1FD0404F5407402D25B084FEAED
:1008E0003202B61A65EB03055B084FEA32024FF499
:1008F00080104FF4002CB6EB020E75EB030E22BFF6
:10090000B61A754640EA0C005B084FEA3202B6EBB5
:10091000020E75EB030E22BFB61A754640EA5C0064
:100920005B084FEA3202B6EB020E75EB030E22BFF4
:10093000B61A754640EA9C005B084FEA3202B6EBF5
:10094000020E75EB030E22BFB61A754640EADC00B4
:1009500055EA060E18D04FEA051545EA16754FEA16
:1009600006164FEAC30343EA52734FEAC2025FEA34
:100970001C1CC0D111F4801F0BD141EA00014FF0C3
:1009800000004FF0004CB6E711F4801F04BF014394
:100990000020B4F1FD0C88BFBCF5E06F3FF6AFAEB0
:1009A000B5EB030C04BFB6EB020C5FEA500C50F140
:1009B000000041EB045170BD0EF0004E4EEA1131C3
:1009C00014EB5C04C2BFD4EB0C0541EA045170BDCA
:1009D00041F480114FF0000E013C90E645EA060E0E
:1009E0008DE60CEA135594EA0C0F08BF95EA0C0F3C
:1009F0003FF43BAF94EA0C0F0AD150EA01347FF484
:100A000034AF95EA0C0F7FF425AF104619462CE75A
:100A100095EA0C0F06D152EA03353FF4FDAE1046BD
:100A2000194622E750EA410618BF52EA43067FF40E
:100A3000C5AE50EA41047FF40DAF52EA43057FF49E
:100A4000EBAE12E74A0011D212F5001211D20DD509
:100A50006FF47873B3EB62520ED44FEAC12343F0C4
:100A6000004343EA505323FA02F070474FF000006E
:100A7000704750EA013002D14FF0FF3070474FF01D
:100A80000000704753B94AB9002908BF00281CBFAD
:100A90004FF0FF314FF0FF3000F07AB9ADF1080CA4
:100AA0006DE904CE00F006F8DDF804E0DDE902238C
:100AB00004B070472DE9F0478C460D460446089E69
:100AC000002B51D18A4217466DD9B2FA82FEBEF18F
:100AD000000F0BD0CEF1200C01FA0EF520FA0CFC21
:100AE00002FA0EF74CEA050C00FA0EF44FEA174A28
:100AF000250CBCFBFAF81FFA87F90AFB18CC45EA6B
:100B00000C4508FB09F3AB420AD9ED1908F1FF3295
:100B100080F02381AB4240F22081A8F102083D44DD
:100B2000ED1AA4B2B5FBFAF00AFB105544EA0544ED
:100B300000FB09F9A14509D9E41900F1FF3380F060
:100B40000A81A14540F2078102383C44A4EB090424
:100B500040EA08400021002E61D024FA0EF4002360
:100B600034607360BDE8F0878B4207D9002E54D003
:100B7000002186E821000846BDE8F087B3FA83F13A
:100B8000002940F08E80AB4202D3824200F2FA800C
:100B9000841A65EB03050120AC46002E3FD086E8A1
:100BA0001010BDE8F08712B90127B7FBF2F7B7FACA
:100BB00087FEBEF1000F34D1EB1B3A0C1FFA87FC05
:100BC0000121B3FBF2F8250C02FB183345EA03457B
:100BD0000CFB08F3AB4207D9ED1908F1FF3002D244
:100BE000AB4200F2D1808046ED1AA3B2B5FBF2F021
:100BF00002FB105543EA05440CFB00FCA44507D951
:100C0000E41900F1FF3302D2A44500F2B88018467F
:100C1000A4EB0C0440EA08409DE731463046BDE8AD
:100C2000F087CEF1200405FA0EF307FA0EF720FA4A
:100C300004F83A0C25FA04F448EA0308B4FBF2F18C
:100C40004FEA184502FB11441FFA87FC45EA0445A8
:100C500001FB0CF3AB4200FA0EF409D9ED1901F1D6
:100C6000FF3080F08A80AB4240F2878002393D44F9
:100C7000EB1A1FFA88F5B3FBF2F002FB103345EADA
:100C8000034500FB0CF3AB4207D9ED1900F1FF3827
:100C90006FD2AB426DD902383D44EB1A40EA0141B4
:100CA0008FE7C1F1200722FA07F88B4005FA01F41B
:100CB00048EA030320FA07FE4FEA134CFD404EEAD0
:100CC000040EB5FBFCF94FEA1E440CFB19551FFA44
:100CD00083F844EA054509FB08F4AC4202FA01F244
:100CE00000FA01FA08D9ED1809F1FF3043D2AC42FD
:100CF00041D9A9F102091D442D1B1FFA8EFEB5FB37
:100D0000FCF00CFB10554EEA054400FB08F8A0452A
:100D100007D9E41800F1FF3529D2A04527D90238B8
:100D20001C4440EA0940A4EB0804A0FB02894C459E
:100D3000C6464D4615D312D056B1BAEB0E0364EB3E
:100D4000050404FA07F7CB401F43CC4037607460BA
:100D50000021BDE8F0871846F8E69046E0E6C24577
:100D6000EAD2B8EB020E69EB03050138E4E7284646
:100D7000D7E7404691E78146BEE7014678E702386B
:100D80003C4445E7084608E7A8F102083D442BE744
:100D9000704700BF08B501220448114601F0DAFB94
:100DA00040F6B830BDE8084000F002BF0014024031
:100DB00010B5094C00220121204601F0CBFB142084
:100DC00000F0F6FE01222046114601F0C3FB05208B
:100DD000BDE8104000F068BA001402407FB514224C
:100DE000002101A804F0CAFD012301A903480193D1
:100DF00001F046FA07B05DF804FB00BF00140240A2
:100E00007FB51422002101A804F0B8FD012301A937
:100E100003480193029301F033FA07B05DF804FB35
:100E200000140240F8B5134F082600246425012160
:100E3000384601F07DFB18B9013D15F0FF05F6D1EC
:100E40000A2000F031FA640001213846E4B201F0D2
:100E50006FFB08B144F0010464250121384601F01C
:100E600067FB18B1013D15F0FF05F6D1013EDDD15C
:100E70002046F8BD0014024038B5114D642401210C
:100E8000284601F055FB18B1013C14F0FF04F6D1DF
:100E90000B4D64240121284601F04AFB18B9013C9E
:100EA00014F0FF04F6D1064D64240121284601F018
:100EB0003FFB00B938BD013C14F0FF04F5D138BD4B
:100EC0000014024010B50446FFF772FFFFF786FFDB
:100ED000FFF7D2FFFFF7A6FF2070FFF7A3FF6070B8
:100EE000FFF7A0FFA070FFF79DFFE070FFF79AFFEC
:100EF000FFF786FF01220448114601F02BFB642016
:100F0000BDE8104000F054BE0014024030B500F0BF
:100F1000F00385B00001C0B243F00C0243F00803B7
:100F20008DF80D300C4C8DF80C2040F00C0340F087
:100F300008008DF80E308DF80F006425009504230D
:100F400003AA7E21204601F017FD08B905B030BD87
:100F5000012000F02DFEF1E75006002030B500F032
:100F6000F00385B00001C0B243F00D0243F0090365
:100F70008DF80D300C4C8DF80C2040F00D0340F036
:100F800009008DF80E308DF80F00642500950423BC
:100F900003AA7E21204601F0EFFC08B905B030BD60
:100FA000012000F005FEF1E75006002008B53320CF
:100FB000FFF7ACFF3220FFF7A9FF2820FFF7A6FFBD
:100FC0000C20FFF7A3FF0620FFF7A0FF0120FFF78B
:100FD0009DFF1420BDE8084000F0EABD10B5441E96
:100FE00014F8010F00B910BDFFF7B8FFF8E761F082
:100FF0007F0141EA8010C0B2FFF788BF10B51446E8
:10100000FFF7F5FF2046BDE81040FFF7E7BF0120DE
:10101000FFF77CBF38B51A4B834230D1194C217889
:101020000E29254625D81848184A03780A2B02D0DD
:1010300003780D2B11D116490B7801330B70002367
:101040002B701378013303F03F03137001220E4914
:101050000B48BDE8384004F02ABB15780D4A0078EB
:101060004B1C02EB0512DBB2505400212370D1540B
:10107000ECE7094804F0FEFC00232370E6E738BDE6
:1010800010060020FB050020FA050020F9050020CD
:10109000F8010020F9010020986F00082DE9F043C5
:1010A00089B0FFF783FF00F02DFD00F0FFFAFFF796
:1010B00071FE012266496748674FDFF8E881674E95
:1010C00004F0F5FA00210846654AFFF797FF02A8E9
:1010D000FFF7F8FEFFF79BFF624804F0CBFC00250A
:1010E000642000F065FD3B78D3B108EB0514013BAB
:1010F00020463B7004F0BEFC002108462246FFF764
:101100007DFF8021304601F03FFA57492046FFF726
:101110006FF8002834D101220121304601F01AFA7B
:10112000524C2378013505F03F05002BD8D0504BA9
:101130001B78002BD4D002A8FFF7C4FE9DF80A103C
:101140004C4804F023FC9DF80B104B4804F01EFCA7
:101150009DF8091001919DF808109DF80B309DF83D
:101160000A20009103A8454904F03AFDFFF74FFF1C
:1011700003AA00210120FFF741FF00232370AFE7FE
:101180003F492046FFF734F802460028C4D03D49C5
:101190002046FFF72DF820B90121304601F0F4F97F
:1011A000BEE739492046FFF723F88146F8B99DF894
:1011B00009009DF808309DF80B209DF80A1000905A
:1011C000324804F0E3FB9DF8091001919DF80810E6
:1011D0009DF80A2000919DF80B30284903A804F0DF
:1011E000FFFC03AA49460120FFF708FF98E7072202
:1011F0002749204604F018FD814690B9254920462C
:1012000004F024FD2349484604F020FD04F087FB48
:10121000C4B22146204804F0B9FB204600F04CFA45
:101220007EE70A221D49204604F0FEFC8146002884
:101230007FF476AF1A49204604F008FD1849484665
:1012400004F004FD04F06BFB094B187068E700BF65
:10125000FA05002010060020F801002000040240DA
:10126000AA6F0008B76F0008C36F000804000020D1
:10127000050600204870000850700008097000083A
:10128000CA6F0008D26F0008DD6F0008E66F000823
:1012900023700008297000082B7000083B700008BC
:1012A00046700008F9010020012882B00AD90623FF
:1012B000584304380090009B5A1E0092002BFAD12C
:1012C00002B0704704230193019B5A1E0192002B28
:1012D000FAD1F5E710B594B03022002108A804F047
:1012E0004DFB0021142203A804F048FB0024174BF7
:1012F00001941A6C42F080521A641B6C144A03F079
:1013000080530193019B0294136823F4404343F4F8
:101310008043136013680E9403F440430293029BCE
:101320000223089301230B9308A810230C9302F0C7
:101330000BFA0F23214603A8039304940594069403
:10134000079402F027FC14B010BD00BF0038024023
:101350000070004080B59CB000F0FEFBFFF7BAFFC4
:101360001422002114A8002404F008FBAE4B0094C2
:101370001A6BAE48AE4D42F004021A631A6B02F0CB
:1013800004020092009A01941A6B42F020021A6340
:101390001A6B02F020020192019A02941A6B42F039
:1013A00001021A631A6B02F001020292029A03947C
:1013B0001A6B42F002021A631A6B02F002020392E5
:1013C000039A04941A6B42F040021A631A6B02F0FB
:1013D00040020492049A05941A6B42F010021A63B8
:1013E0001A6B02F010020592059A06941A6B42F0ED
:1013F00008021A631B6B03F00803069322460121BF
:10140000069B01F0A7F8224644F29F01894801F0AB
:10141000A1F822460F21884801F09CF82246FF21BE
:10142000864801F097F84FF4005814A98448CDF885
:10143000508001261594169400F022FF14A97B48D1
:10144000149615961694179400F01AFF44F29F0311
:1014500014A9784814934FF00F0915961694179411
:1014600000F00EFF14A97448CDF85090022715968D
:101470001694179400F004FF4FF4466314A96D48C6
:1014800014931594169700F0FBFEFF2314A96B48E4
:10149000149315961694179400F0F2FE102221462C
:1014A0000DA804F06BFA1C22214614A809940A9492
:1014B00004F064FA4FF0804385E80802284640F2C1
:1014C000E733EB60AC602C61AC614FF4805902F003
:1014D000BBFE0DA92846CDF8349003F0A3FA2846A8
:1014E00002F032FF09A9284609940A9403F0A6FDE8
:1014F00014A904222846149415941694189403F001
:101500007DF85048504A84604FF4E1334FF00C0AA4
:1015100080E80C00C4600461C0F814A08461C46158
:1015200003F0DEFF1022214614A804F027FA474DED
:10153000474BAC6085E818002846464BAB622E61ED
:101540002E7685F82040EC62EC60EE6185F8304044
:101550006C6100F041FB0323149314A90623284671
:101560001693159600F02AFD1022214609A804F0D2
:1015700005FA1C2221460DA80794089404F0FEF9F0
:101580002022214614A804F0F9F9334D3349AC6008
:101590003F2385E80A00284641F28733EB602C613F
:1015A0006C61AC6102F050FE09A92846CDF8249088
:1015B00003F038FA284602F047FF07A928460794A7
:1015C000089403F03BFD602352460D930DA940F2B1
:1015D000F31328460E930F9411941294139403F06E
:1015E000F5F814A928461494159416941794189491
:1015F000CDF864801B9403F07DFD284600F04EF981
:10160000174D1848AC60642385E809004FF4804307
:1016100028462B61EC606C61AC61EC612C6201F0DE
:10162000A3F8214628461FE000380240001402407B
:101630002C0700200004024000180240000C024069
:10164000000802401006002000480040A4060020C8
:10165000002001400100000FEC06002000000140C6
:10166000500600200054004001F0F6FF21462846B5
:1016700002F02EF8054B18683A462346214680684A
:1016800004F000FAFFF70AFDFEE700BF0C0000209F
:1016900010B50A231446034892B203F0ABFF20466C
:1016A00010BD00BF10060020704700000C2101484B
:1016B00003F05EBCEC06002008B5FEF74BFF0022ED
:1016C0000B4BFFF7D7F808A3D3E90023FEF7A8FFD9
:1016D000084B0022FEF7F2FDFFF7B4F9064B80B28B
:1016E0000138186408BD00BF0000000000B07D4054
:1016F0000080664000405F400000014082B00C4B1B
:10170000002100915A6C42F480425A645A6C02F4EF
:1017100080420092009A01911A6C42F080521A6441
:101720001B6C03F080530193019B02B0704700BF14
:101730000038024010B5044688B01422002103A8E6
:1017400004F01CF92268164B9A4226D103F58C331B
:10175000002401945A6C134842F480725A645A6C03
:1017600002F480720192019A02941A6B42F0010213
:101770001A631B6B03F001030293029B082303937C
:1017800003A90323049300F07BFD122022460521C8
:1017900000F0F4FC122000F033FD08B010BD00BFD3
:1017A000002001400000024030B5044689B01422F8
:1017B000002103A804F0E2F822681D4B9A4234D1BC
:1017C00000251C4C0195236B1B4843F00203236347
:1017D000236B03F002030193019B4FF440730393C7
:1017E00012230493012305930323069303A90423DF
:1017F000079300F045FD0295236C43F40013236426
:10180000236C03F400132A46294602931F20029BEF
:1018100000F0B4FC1F2000F0F3FC20202A462946EB
:1018200000F0ACFC202000F0EBFC09B030BD00BFA4
:1018300000540040003802400004024007B503682D
:10184000144A93420ED100230093134B5A6C42F07A
:1018500001025A645B6C03F001030093009B03B028
:101860005DF804FBB3F1804FF9D1002203F50E338C
:101870000192196C41F0010119641B6C03F0010322
:10188000019311461C20019B00F078FC1C2000F005
:10189000B7FCE4E7000001400038024010B5044600
:1018A00086B01422002101A804F068F822680E4BCB
:1018B0009A4216D1002300930C4B0D481A6B42F04C
:1018C00010021A631B6B03F010030093009B4FF48C
:1018D000804301930223029301A90123059300F0A1
:1018E000CFFC06B010BD00BF000001400038024030
:1018F0000010024030B5044689B01422002103A82C
:1019000004F03CF82268194B9A422DD103F5F833C4
:10191000002401941A6C164842F480221A641A6C4E
:1019200002F480220192019A02941A6B42F008029A
:101930001A631B6B03F008030293029B4FF440737E
:1019400003930123059303230225069303A9072389
:101950000793049500F094FC27202246294600F0C6
:101960000DFC272000F04CFC09B030BD00480040C1
:10197000000C02407047FEE7FEE7FEE7FEE7704717
:101980007047704700F002B9014800F067BA00BF25
:10199000A4060020014802F04FBB00BF2C07002026
:1019A000014801F09FB900BF50060020014801F036
:1019B000BDBD00BF50060020014803F0DFBE00BFE0
:1019C0001006002070B50E4615460C46A31B9D421E
:1019D00001DC284670BDAFF3008004F8010BF5E789
:1019E00008B50A4B1968024609B90949196018680F
:1019F000694602448A4206D903F096FF0C2303602D
:101A00004FF0FF3008BD1A6008BD00BFFC05002084
:101A1000740700204FF0FF3070474FF400534B60C5
:101A20000020704701207047002070470F49D1F80F
:101A3000883043F47003C1F888300D4B1A680020D9
:101A400042F001021A6098601A6822F0847222F44F
:101A500080321A60074A5A601A6822F480221A609B
:101A6000D8604FF000638B60704700BF00ED00E06E
:101A700000380240103000241B4B834233D11B4AF4
:101A8000138801339BB2138013889BB2B3F57A7F1E
:101A900029D31749002313800B780133DBB20322CB
:101AA000B3FBF2F202EB42029A1A12F0FF0F0B7034
:101AB00005D1104A127812B10F4A012010703B2B49
:101AC00011D90E4A13780133DBB200203B2B08708A
:101AD00001D8137070471070094A13780133DBB2D4
:101AE000172BF6D9107070472C0700200206002033
:101AF0000406002005060020040000200106002046
:101B000000060020014802F03FBA00BF2C07002069
:101B100038B50E4A0E4B054618784FF47A73B3FB6E
:101B2000F0F31068B0FBF3F000F07EFB044658B908
:101B30000F2D09D8024629464FF0FF3000F01EFB5A
:101B4000044B20461D6038BD012038BD0000002038
:101B5000050000200800002008B50B4B1A6842F46D
:101B600000721A601A6842F480621A601A6842F4BD
:101B700080721A60032000F0E3FA0020FFF7C8FF2C
:101B8000FFF7BCFD002008BD003C0240034A044BA7
:101B900011681B780B441360704700BF6C0700206E
:101BA00005000020014B1868704700BF6C0700203B
:101BB00038B50446FFF7F6FF631C1CBF054B1B78C6
:101BC000054618BFE418FFF7EDFF401B8442FAD822
:101BD00038BD00BF0500002038B50446002800F0DD
:101BE0002E810368974A93420CD002F5807293428B
:101BF00008D002F58072934204D040F2431192481B
:101C0000FFF752FD636833F4403304D04FF4A27100
:101C10008D48FFF749FDA36833F0407304D040F2CC
:101C200045118948FFF740FD2369012B04D94FF482
:101C3000A3718548FFF738FD237E012B04D940F2BC
:101C400047118148FFF730FDA36A33F0407223F05B
:101C5000807114D0B2F1806F11D0B2F1006F0ED04C
:101C6000B1F1406F0BD0B3F1606F08D003F1714355
:101C7000012B04D94FF4A4717348FFF715FDE368F5
:101C800033F4006304D040F249116F48FFF70CFDB4
:101C9000E369013B0F2B04D94FF4A5716A48FFF7A4
:101CA00003FD94F83030012B04D940F24B11664803
:101CB000FFF7FAFC6369022B04D94FF4A67162485E
:101CC000FFF7F2FC94F82030012B04D940F24D11BB
:101CD0005D48FFF7E9FCA26A5C4B9A4208D0E36AD0
:101CE00033F0405304D040F251115748FFF7DCFC69
:101CF000256C2DB92046FFF71DFD656484F83C5026
:101D0000236CDB0600F19980236C23F4885323F0C5
:101D1000020343F0020323644D4B5A6822F440321D
:101D20005A605A6861680A435A60236821695A6890
:101D300022F480725A605A6842EA01225A605A6854
:101D4000A16822F040725A605A680A435A609A6841
:101D5000E16822F400629A609A680A439A603B49FB
:101D6000A26A8A425DD0996821F070619960996891
:101D70000A439A609A68E16A22F040529A609A682F
:101D80000A439A609A68217E22F002029A609A6859
:101D900042EA41029A6094F82020002A49D0636AFE
:101DA000013B072B04D940F277712748FFF77CFCF1
:101DB0002368616A5A6842F400625A605A6822F4E1
:101DC00060425A605A68013942EA41325A602368D7
:101DD000E169DA6A22F47002DA62DA6A013942EA07
:101DE0000152DA629A6894F8301022F400729A6014
:101DF0009A6842EA41229A609A68616922F4806294
:101E00009A609A68002042EA81229A606064236C9A
:101E100023F0030343F001032364002384F83C30E0
:101E200038BD9A6822F070629A609A6822F0405237
:101E3000A7E75A6822F40062C8E70120EDE7012015
:101E400038BD00BF00200140707000080100000F85
:101E500000230140704770477047000038B5037E8B
:101E6000012B044604D940F29F415348FFF71CFC64
:101E7000E369013B0F2B04D94FF494614E48FFF7FF
:101E800013FC6369022B04D940F2A1414A48FFF7D1
:101E90000BFC236819685A688D072BD5900629D545
:101EA000226CD1065EBF226C42F4007222649A68F2
:101EB00012F0405F17D1227EAAB9DA6A12F4700FCD
:101EC00002D09A6852050ED45A6822F020025A6055
:101ED000236C23F480732364236CDB045EBF236CC8
:101EE00043F0010323642046FFF7B4FF23686FF03B
:101EF00012021A60236819685A684D0732D5100615
:101F000030D5226CD1065EBF226C42F400522264AE
:101F10009A6812F4401F1ED19A6B12F4401F02D02F
:101F20009A68520517D45A68550514D49A6812F065
:101F3000405F10D1227E72B95A6822F080025A6046
:101F4000236C23F480532364236CD8055EBF236C79
:101F500043F001032364204600F0F0F823686FF09B
:101F60000C021A60236819685A68C9070FD555060C
:101F70000DD51B68D8070AD5236C43F4803323643E
:101F80002046FFF768FF23686FF001021A6023689C
:101F900019685A6889060DD552010BD5626C6FF02D
:101FA000200542F00202626420461D60FFF754FFE4
:101FB00023681D6038BD00BF70700008F7B50023AE
:101FC00001930B68122B04460F4607D9554A9342DA
:101FD00004D040F25A615448FFF766FB7B68013B2E
:101FE0000F2B04D940F25B614F48FFF75DFBBB68E4
:101FF000072B04D940F25C614B48FFF755FB94F87E
:102000003C30012B6DD03D68BA6820680123092D52
:1020100084F83C30AEB229D906EB4603C1681E3BBA
:102020004FF0070E0EFA03FE21EA0E01C160C168EF
:1020300002FA03F30B43C3607A68062A4FEA82036D
:1020400024D81344476B591F1F238B4027EA0303EF
:102050004363426B06FA01F111434163334B9842EB
:1020600033D0002084F83C0003B0F0BD016905EBDB
:1020700045034FF0070E0EFA03FE21EA0E0101613F
:10208000016902FA03F30B430361D5E70C2A0ED86A
:102090001344016BA3F123021F23934021EA03039E
:1020A0000363036B06FA02F21A430263D6E7134492
:1020B000C16A413B1F229A4021EA0202C262C26AFF
:1020C00006FA03F11143C162C8E7122D0BD1184B78
:1020D0005A6822F400025A605A6842F480025A6038
:1020E000BFE70220C0E70F4B9D4201D0112DB8D1B0
:1020F0000F4B5A6822F480025A605A6842F4000278
:102100005A60084B9D42ACD10A4B0B4A1B68B3FB8B
:10211000F2F20A2353430193019B002BA1D0019BB0
:10212000013BF8E712000010707000080020014029
:10213000002301400000002040420F0070470000D3
:10214000C31E042B10B5044603D992210948FFF79A
:10215000ABFA094AD36823F4E0631B041B0C43F079
:10216000BF63240243F4003304F4E0641C43D460EE
:1021700010BD00BFA870000800ED00E00F2A70B588
:1021800004460E46154603D9AA211A48FFF78CFAD1
:102190000F2E03D9AB211748FFF786FA164BD968E3
:1021A000C1F30221C1F107030A1D042B28BF042338
:1021B0000120062A8CBF0339002100FA03F2013AFC
:1021C0008840324001388A400540002C42EA05022E
:1021D0004FEA0212ADBF04F1604404F00F04074B54
:1021E00004F56144B5BFD2B2D2B21A5584F80023C7
:1021F00070BD00BFA870000800ED00E014ED00E025
:10220000002803DABE210648FFF74EBA420901232F
:1022100000F01F0003FA00F0024B43F82200704761
:10222000A870000800E100E00138B0F1807F0AD218
:10223000064B074A5860F02182F82310002007223D
:1022400098601A6070470120704700BF10E000E0FE
:1022500000ED00E090F83530022B03D08023436579
:10226000012070470268052380F83530136823F099
:10227000010313600020704790F83500704700009C
:10228000A54B98422DE9F74F04460D462BD003F598
:102290008063984227D003F58063984223D003F5EA
:1022A000806398421FD003F5806398421BD003F5EA
:1022B0008063984217D003F58063984213D003F5EA
:1022C000806398420FD003F5806398420BD003F5EA
:1022D0008063984207D003F58063984203D0B3210E
:1022E0008E48FFF7E1F92B689AB212B11B0C1B0460
:1022F0001BB1B4218948FFF7D7F96B68032B17D9B5
:10230000A3F11102012A13D9854923F400128A424C
:102310000ED001F580118B420AD0A1F570218A42BE
:1023200006D0804A934203D0B5217C48FFF7BCF920
:10233000AB68022B03D9B6217848FFF7B5F9DFF86F
:10234000EC81002601232A6803FA06F707EA02094E
:102350004F4540F0CA806A6822F01002022A16D166
:102360002A690F2A03D9C7216C48FFF79DF9F108A4
:1023700004EB810106F0070290000B6A0F228240F5
:1023800023EA020E2A69824042EA0E020A626A6861
:1023900020684FEA460B4FF0030A0AFA0BFA02F0E4
:1023A00003016FEA0A0A22F0100200EA0A0001FAA9
:1023B0000BF1013A0143012A216017D8EA68032A88
:1023C00003D9DA215548FFF76FF9A168EA686B680D
:1023D0000AEA010102FA0BF20A43A2606268C3F33F
:1023E000001322EA0702B34013436360E36868689E
:1023F0000AEA030AAB6803FA0BF343EA0A03E36051
:10240000C30072D5484A00230193516C41F48041C6
:102410005164526C26F0030101F1804102F48042C4
:1024200001F59C31019206F0030E019AD1F808C023
:102430004FEA8E0E0F2202FA0EF22CEA020C364AF6
:10244000944227D003F1804303F501339C4253D0DB
:1024500003F580639C4251D003F580639C424FD0CA
:1024600003F580639C424DD003F580639C424BD0C2
:1024700003F580639C4249D003F580639C4247D0BA
:1024800003F580639C4245D003F580639C4214BFF2
:102490000A23092303FA0EF343EA0C038B60D8F8EE
:1024A00000206FEA0901C70354BF0A4049EA02024B
:1024B000C8F80020D8F80420830354BF0A4049EA32
:1024C0000202C8F80420D8F80820C70254BF0A4006
:1024D00049EA0202C8F80820D8F80C30820254BF3A
:1024E0000B4049EA0303C8F80C300136102E7FF484
:1024F00029AF03B0BDE8F08F0123CBE70223C9E782
:102500000323C7E70423C5E70523C3E70623C1E781
:102510000723BFE70823BDE700000240E37000087F
:10252000000011100000221000380240003C014061
:1025300038B505460C4621B94FF4BF710448FFF782
:10254000B3F82B691C4214BF0120002038BD00BF26
:10255000E370000870B5054616460C4621B940F2F6
:102560009F110848FFF7A0F8012E06D94FF4D0714B
:102570000448FFF799F8AC6170BD002EFBD124042C
:10258000F9E700BFE370000838B505460C4621B9ED
:102590004FF4DB710448FFF787F86B6934EA0303F3
:1025A00008BF2404AC6138BDE370000801684B69C2
:1025B00013F480634FF0000210D06FF480634B611E
:1025C0002023026380F83D3080F83E20036C80F8C1
:1025D0003C2043F004030364012070471846704711
:1025E0002DE9F843044617469946C1F307488EB2D1
:1025F0002568B8F1010F0CBF6B69AB6936EA0303BC
:1026000014BF0120002008B9BDE8F8836B695A05A2
:1026100016D52B6843F400732B606FF480636B61F5
:1026200020220023236384F83D2084F83E30226C6E
:1026300042F00402226484F83C300120BDE8F883B3
:102640007B1CD5D0FFF7AEFAA0EB0900874201D37F
:10265000002FCDD100232022236384F83D2084F86D
:102660003E30226C42F02002E4E770B504460D468D
:10267000164623685B695B0701D5002070BD2046C4
:10268000FFF794FFA8B96A1CF3D0FFF78BFA801B01
:10269000854201D3002DECD100232022236384F84E
:1026A0003D2084F83E30226C84F83C3042F0200219
:1026B0002264012070BD2DE9F843089E044690462F
:1026C0001F46C1F307498DB22368B9F1010F0CBF52
:1026D0005B699B6935EA03030CBF01230023434573
:1026E00002D00020BDE8F8837B1CEDD0FFF75AFA3A
:1026F000801B874201D3002FE6D1002320222363D1
:1027000084F83D2084F83E30226C84F83C3042F05E
:10271000200222640120BDE8F88370B504460D460E
:10272000164623685B691B0601D5002070BD204654
:10273000FFF73CFFA8B96A1CF3D0FFF733FA801B00
:10274000854201D3002DECD100232022236384F89D
:102750003D2084F83E30226C84F83C3042F0200268
:102760002264012070BD000070B5044608B9012044
:1027700070BD0368794A93420CD002F5806293429F
:1027800008D002F58062934204D040F2BB11744835
:10279000FEF78AFF6368734A013B934204D94FF402
:1027A000DE716F48FEF780FFA36833F4804304D0E6
:1027B00040F2BD116A48FEF777FFE36823F47F73A8
:1027C00023F0030323B14FF4DF716548FEF76CFF7C
:1027D000236923F40043B3F5804F04D040F2BF11C6
:1027E0005F48FEF761FF6369012B04D94FF4E07184
:1027F0005B48FEF759FFA36933F0FE0304D040F2B3
:10280000C1115748FEF750FFE36933F0400304D08D
:102810004FF4E1715248FEF747FF236A33F080031B
:1028200004D040F2C3114E48FEF73EFF94F83D300D
:1028300003F0FF0223B984F83C202046FEF7B4FFE2
:102840002268242384F83D30136823F001031360C9
:1028500001F094FA6568444B9D420FD8434B98426F
:1028600085D9226842495368B0FBF1F123F03F0358
:102870000B435360136A23F03F0316E03D4B98422D
:102880007FF675AF22683A4E5368B0FBF6F623F038
:102890003F0333435360136A4FF4967123F03F03B1
:1028A00071434FF47A76B1FBF6F1013119431162AD
:1028B000D1692D4B21F44F419D4221F0FF0100F1E0
:1028C000FF3031D86D00B0FBF5F00130C0F30B03E1
:1028D000042B38BF04230B43D3611168206AE369DA
:1028E00021F0C00103430B4313609168E068236942
:1028F00021F40341034321F0FF010B439360D168AE
:10290000A069636921F0FF0103430B43D36013689F
:1029100043F00103136000202023206484F83D303D
:10292000206384F83E0070BDA36853B905EB4503EE
:10293000B0FBF3F0431CC3F30B036BB143F4004350
:10294000C9E719236B43B0FBF3F0431CC3F30B033C
:1029500013B143F44043BEE70123BCE700540040F9
:102960001C7100087F1A0600A08601007F841E00EB
:1029700040420F00FF083D002DE9FF4104461F467D
:102980000D469046FFF70EF994F83D30202B064691
:1029900004D00225284604B0BDE8F0810090192338
:1029A000012258492046FFF786FE0028F1D194F80D
:1029B0003C30012BEDD0012384F83C3023681A68A9
:1029C000D2075EBF1A6842F001021A601A6822F448
:1029D00000621A60212284F83D20102284F83E20F3
:1029E000002222646785628D2285474AE262E26A9C
:1029F000C4F82480082A04D0012A02D012F5803FAE
:102A000004D11A6842F480721A6002E0226B122A22
:102A1000F7D000960A9B00224FF001112046FFF7E5
:102A20004AFE08B10125B5E723692268B3F5804F56
:102A300013D105F0FE05156133460A9A3349204645
:102A4000FFF7CEFD05460028ECD1236803905A69B4
:102A500003929B690393039B44E0EB1103F006038D
:102A600043F0F00313612A490A9A33462046FFF7E0
:102A7000B7FD0028D6D12368EDB21D61DCE73246F0
:102A80000A992046FFF749FE40B1236C042B01BF91
:102A90002268136843F400731360C3E7636A206815
:102AA0001A4612F8011B01616262628D013A92B20C
:102AB0006285228D4769511E89B27F0721850AD51B
:102AC00049B15978016102336362638D013B9BB266
:102AD000023A6385228532460A992046FFF7C5FDF2
:102AE0000028D2D1238D002BC9D121680A6842F475
:102AF00000720A60202284F83D2084F83C3084F87B
:102B00003E3047E7020010000000FFFF0200010016
:102B10000800010070477047704770477047704762
:102B20007047704770477047806B026890F83D109F
:102B300070B51468466B856B002324F48064F363DE
:102B4000EB63146043851468336524F001042B653E
:102B5000146090F83D40602CC9B208D1202280F862
:102B60003D2080F83E300364FFF7DDFF70BD01F0CB
:102B7000280128290DD1146844F001041460146858
:102B800044F480641460036380F83D10FFF7CAFFCB
:102B900070BD202280F83D2080F83E30F6E700002E
:102BA00090F83D2090F83E30102B10B5D2B204467C
:102BB000036805D1222A02BF196821F40061196057
:102BC00002F0280128293AD10022226384F83D101E
:102BD0005A6812F4006259D05A68606B22F400629D
:102BE0005A6090F83530012B3C4B35D00365FFF728
:102BF00031FB50B12268606B136823F0010313604E
:102C0000202384F83D30036D984794F83D30226CC2
:102C10005207DBB212D5282B10D12268536823F457
:102C2000E06353602E4BE36220220023236320469F
:102C300084F83D2084F83E30FFF771FF10BD5968DD
:102C4000090504D4602A1CBF202284F83D200022FC
:102C5000226384F83E20BBE7A06B0365FFF7FAFA16
:102C60000028D2D023685A69520605D5626A1B69CA
:102C70001370636A013363622268A06B136823F0E8
:102C800001031360202384F83D30BCE794F83D1025
:102C9000602915D1202184F83D1022645A6950061C
:102CA00005D5626A1B691370636A01336362226827
:102CB000136823F0010313602046FFF734FFA4E7F5
:102CC0005A69510605D5626A1B691370636A01333C
:102CD00063622046FFF726FF97E700BF292B000815
:102CE0000000FFFF036830B55A68C56A90F83E10CF
:102CF0000446C9B290F83D0010298DB0C0B202D090
:102D0000402940F0B6829869596911F0010F07D146
:102D1000B5F52A0F02D0B5F12A4F52D10DB030BD12
:102D200095054ED5E26AB2F52A0F0CD10122E26276
:102D300094F83E20402A11D1226D52B9626C02F003
:102D4000FE021A61EAE7E26AB2F12A4FF0D10822E4
:102D5000EDE7626C42F00102D2B2F2E72269B2F50D
:102D6000804F1BD194F83D20212A626C12D102F0D1
:102D7000FE021A61626B12B9A16B0029CED0D26B30
:102D80001AB9A26BD26B002AC8D05A6842F400620A
:102D90005A60C3E742F00102D2B2EAE7226D32B9CB
:102DA000626CD21102F0060242F0F002C9E7226D15
:102DB000012AB3D1626CD21102F0060242F0F10294
:102DC000BFE70D0703D5950501D5626CE4E78D07D4
:102DD00040F1E180950540F1DE8094F83E10E26A12
:102DE000256B94F83D002228C9B240F0CC80206DBC
:102DF00040B9402906D101905A6901929B6901931B
:102E0000019B8BE7216D81B92069B0F5404F0CD152
:102E100002915A6902929A690292029A1A6842F4DD
:102E200080721A60236D013328E0618D89B251B937
:102E300003915A6903929A690392039A1A6842F4B9
:102E400000721A6019E0618D89B201294AD112F528
:102E5000803F1CD11A6822F480621A605A6812F40A
:102E600000620DD01A6822F480621A600022049277
:102E70005A6904929B690493049B002323654DE7E0
:102E800005925A6905929A690592059AD6E7082A29
:102E90001CD0202A1AD0122D0DD1012A16D11A6861
:102EA00022F480621A60002206925A6906929B6997
:102EB0000693069BE1E7102AF1D88E4921FA02F227
:102EC000D007ECD51A6842F48062EBE71A6822F466
:102ED00080621A60002207925A6907929A690792E3
:102EE000079AABE7618D89B202292CD1102A03D849
:102EF0008049D140C90722D4196821F48061196042
:102F0000196841F40061196059680D050FD512F573
:102F1000803F08D0511E1F299DBF774ACA40D24327
:102F20000122D00703D45A6842F480525A6000222A
:102F300008925A6908929B690893089B9DE7196853
:102F400041F48061DFE7196841F4806119605968D4
:102F5000090510D512F5803F09D0013A1F2A9DBFFF
:102F6000654921FA02F2D2430122D20703D45A68FA
:102F700042F480525A60002209925A6909929B6970
:102F80000993099B79E700220A925A690A929B6980
:102F90000A930A9BC2E610F0040F586800F0AE8056
:102FA00005053FF5BBAE11F0800F01F0040169D0BB
:102FB000500567D5002965D194F83D20258D94F8FA
:102FC0003E10E06AD2B2C9B2C5B9212A18D1082888
:102FD00078D0202876D010F5803F73D05A6822F43C
:102FE000E0625A6011232363002384F83E302023DB
:102FF00084F83D302046FFF78DFD8FE6212A05D06D
:1030000040297FF48BAE222A7FF488AE628D92B283
:103010001AB95A6822F48062BAE694F83E20402A2F
:1030200026D1226D62B9E26C012AA26C04D1D2B21F
:103030001A61236D023321E7C2F307221A61F1E618
:10304000226D012A02D1A26CD2B2F7E7226D022AC8
:103050007FF464AE94F83D20222A04D11A6842F429
:1030600080721A605AE694F83D20212A7FF456AE09
:10307000626A12F8011B19616262638D013B9BB2A7
:1030800063854BE600293FF449AE92057FF546AED5
:10309000E16A94F83D20212A7FF440AE628D92B21D
:1030A000002AE5D108290DD020290BD011F5803F49
:1030B00008D0596821F4E06159601123236384F832
:1030C0003E2094E75A6822F4E0625A601A6842F49B
:1030D00000721A6000232022236384F83D2094F8B4
:1030E0003E2084F83E30402A204684D1FFF718FD68
:1030F00014E600BF140001008180008005053FF543
:103100000DAE11F0400F01F0040148D0500546D536
:10311000002944D194F83D20222A7FF4FFAD628D2E
:1031200092B2032A14D9626A1B691370636A01336D
:103130006362638D013B9BB26385638D9BB2032BFE
:103140007FF4ECAD2268536823F480635360E5E5B7
:10315000E06A02283FF4E2AD012A3FF6DFAD1A68CB
:1031600022F480621A605A6822F4E0625A60626A4D
:103170001B691370636A01336362638D013B9BB209
:103180006385202384F83D3094F83E3084F83E1067
:10319000402B68D121632046FFF7C3FCBEE5002920
:1031A0003FF4BCAD92057FF5B9ADE26A618D89B29D
:1031B0000429616A09D15A6822F480625A601B6945
:1031C0000B70636A0133636257E7608D80B2032836
:1031D0000CD15868042A20F480605860EFD0022A8D
:1031E000EDD01A6822F480621A60E8E7608D80B240
:1031F0000228E4D1012A01D0102A28D11A6822F429
:1032000080621A601B690B70626A531C6362638D73
:10321000013B9BB2638523681B695370636A226814
:1032200001336362638D013B9BB26385536823F472
:1032300040735360202384F83D3094F83E30402B97
:103240004FF0000384F83E300DD12363A3E7042A36
:1032500001D0022A03D11A6842F48062D1E71A68C9
:1032600042F40072CDE7122323632046FFF753FC9C
:1032700054E5216C21B35969002511F0020F29D0C2
:1032800012F4007F26D0226C02B19D6994F83D2093
:1032900002F02802282A16D15A6822F480625A6065
:1032A00085F004012B064FF00003C1F3800154BFE9
:1032B000A289228B84F83C302046FFF72FFC2DE5B5
:1032C0009D695969D9E76FF002025A61002384F8B9
:1032D0003C3023E5CD0640F1AF80950540F1AC8050
:1032E00094F83D505A6822F4E0625A6000220B9232
:1032F0005A690B921A6842F001021A600B9A1A6816
:1033000022F480621A605A681105EDB220D505F0EA
:10331000F702222A48D1A06B0268526892B26285F5
:10332000628D92B21AB1226C42F0040222645A6891
:1033300022F400625A60FEF79FFF012808D0A06BBC
:10334000784B0365FEF786FF10B1A06B036D9847BD
:10335000638D9BB213B323685A69520709D5626A19
:103360001B691370636A01336362638D013B9BB217
:10337000638523685A69500609D5626A1B69137010
:10338000636A01336362638D013B9BB26385638D26
:103390009BB21BB1236C43F004032364236C03B37F
:1033A0002046FFF7FDFBB9E4606B0268526892B2F9
:1033B0006285628D92B21AB1226C42F004022264DC
:1033C0005A6822F400625A60FEF756FF0128BFD007
:1033D000606B544B0365FEF73DFF0028B8D0606B6F
:1033E000B4E72A2D06D12363282384F83D302046F4
:1033F000FFF793FB94F83D30282B0CD14A4BE36246
:10340000202200232363204684F83D2084F83E30A8
:10341000FFF785FB82E4236B222B02D0222D7FF461
:103420007DAC00232022236384F83D2084F83E30C5
:103430002046FFF772FB71E400F0F700212801F04D
:10344000040535D1090627D5510525D525BB94F8A6
:103450003D10628D92B2C9B2002A3FF45FAC626A3D
:1034600012F8015B1D616262628D013A92B262855F
:10347000628D92B2002A7FF451AC29297FF44EACC0
:103480005A6822F480625A602823206384F83D3011
:103490002046FFF741FB41E4002D3FF43FAC95058A
:1034A0007FF53CAC628D92B2002A7FF4E1AD35E449
:1034B000480627D5510525D525BB94F83D20618DBB
:1034C00089B2D2B200293FF429AC616A1B690B7042
:1034D000636A01336362638D013B9BB26385638DD5
:1034E0009BB2002B7FF41AAC2A2A7FF417AC226817
:1034F000536823F48063536022232363282384F8D2
:103500003D3095E7002D3FF409AC92057FF506AC00
:10351000628D92B2002A3FF401AC626A1B6913709B
:103520004FE600BF292B00080000FFFFF8B5036835
:103530005F695E6817F48075044606D016F48075DE
:103540001EBF6FF480725A610125B90506D5F205D8
:1035500042BF6FF4007245F002055A61780537D515
:10356000F10535D594F83EE0618D94F83D20206B4F
:10357000BEF1200F89B2D2B25AD1002958D102F03F
:10358000F701212903D0282A52D1212850D194F8BB
:103590003D20E16A0829D2B201D020292AD1282A67
:1035A00028D12C4AE2625A6822F4E0625A606FF431
:1035B00080625A611A6822F480621A600023202215
:1035C0002363204684F83D2084F83E30FFF7A7FAB5
:1035D0003A053CD5F3053AD523686FF4006245F00F
:1035E00008055A61236C1D4325642046BDE8F84058
:1035F000FFF7D6BA212A17D11649E16222632022A9
:1036000084F83D20002284F83E205A6822F4E062CB
:103610005A606FF480625A611A6822F480621A60FC
:103620002046FFF779FAD3E76FF480625A61CFE75B
:103630006FF480625A6194F83E20102A04BF1A6821
:1036400042F4007245F0040508BF1A60C0E7002D7F
:10365000C8D1F8BD0000FFFF38B51B4A036893428C
:1036600004460D460BD002F58062934207D002F566
:103670008062934203D05C211448FEF715F835F0C0
:10368000100303D05D211148FEF70EF894F83D2099
:10369000D2B2202A16D1242384F83D302368196839
:1036A00021F001011960596A21F010015962596A2B
:1036B0000D435D62196841F001011960002084F832
:1036C0003D2038BD022038BD005400405471000830
:1036D00038B51B4A0368934204460D460BD002F5E9
:1036E0008062934207D002F58062934203D0842126
:1036F0001448FDF7D9FF0F2D03D985211148FDF797
:10370000D3FF94F83D20D2B2202A16D1242384F886
:103710003D302368196821F001011960586A4FF69D
:10372000F0710140294389B25962196841F00101E1
:103730001960002084F83D2038BD022038BD00BF4C
:1037400000540040547100082DE9F341044618B9B3
:10375000012002B0BDE8F08103680F2B03D9E821F6
:10376000A248FDF7A1FF2368D80718D4236899075A
:103770006BD42368190700F1BE8023685A0700F153
:10378000E480A369022B04D940F2CF119748FDF7DA
:103790008BFFA269002A40F051810020D9E76368BD
:1037A00033F4803206D0B3F5A02F03D0ED218F483B
:1037B000FDF77AFF8E4B9A6802F00C02042A07D0BC
:1037C0009A6802F00C02082A0AD15B685A0207D5EF
:1037D000874B1B689B03C9D56368002BC6D1B7E72D
:1037E0006368834DB3F5803F11D12B6843F4803378
:1037F0002B60FEF7D7F97E4D06462B689F03B5D4A4
:10380000FEF7D0F9801B6428F7D90320A1E7B3F5B0
:10381000A02F04D12B6843F480232B60E5E72A68AE
:1038200022F480322A602A6822F480222A60002B47
:10383000DFD1FEF7B7F906462B68980396D5FEF759
:10384000B1F9801B6428F7D9DFE7E368012B04D9BD
:1038500040F21F116548FDF727FF23691F2B04D98C
:103860004FF490716148FDF71FFF614B9A6812F0A9
:103870000C0F07D09A6802F00C02082A12D15B687C
:1038800059020FD45A4B1A68920703D5E268012AED
:103890007FF45EAF1A68216922F0F80242EAC102A1
:1038A0001A6066E7E268534BB2B101221A60FEF774
:1038B00079F94F4D06462B689F0707D52B6822697B
:1038C00023F0F80343EAC2032B6052E7FEF76AF9DC
:1038D000801B0228EFD998E71A60FEF763F9444D80
:1038E00006462B6898077FF544AFFEF75BF9801B0F
:1038F0000228F6D989E76369012B04D94FF4B07126
:103900003A48FDF7D1FE62693B4B7AB101221A6059
:10391000FEF748F9364D06466B6F9B073FF52DAF16
:10392000FEF740F9801B0228F6D96EE71A60FEF711
:1039300039F92F4D06466B6F9F077FF51EAFFEF7D7
:1039400031F9801B0228F6D95FE7A368012B06D95D
:10395000052B04D04FF4C6712448FDF7A5FE244B77
:103960001A6C12F0805228D101921A6C42F08052E7
:103970001A641B6C03F080530193019B01261F4DB9
:103980002B68D8051BD5A368194D012B27D12B6FA8
:1039900043F001032B67FEF705F9154D074641F289
:1039A00088382B6F9A0743D5002E3FF4EAAE104AB1
:1039B000136C23F080531364E3E60026DFE72B68E3
:1039C00043F480732B60FEF7EDF807462B68D905AA
:1039D000D9D4FEF7E7F8C01B0228F7D915E7052B65
:1039E0000ED12B6F43F004032B67D0E78F710008D3
:1039F0000038024000004742800E474200700040FD
:103A00002A6F22F001022A672A6F22F004022A6735
:103A1000002BC0D1FEF7C6F841F2883807462B6F5D
:103A20009B07C1D5FEF7BEF8C01B4045F7D9ECE6B1
:103A3000FEF7B8F8C01B4045B3D9E6E63B4EB36885
:103A400003F00C03082B3FF483AE022A384D5ED1FD
:103A5000E36933F4800304D04FF4EC713548FDF78B
:103A600023FE236A3F2B04D940F2D9113148FDF7D8
:103A70001BFE636A323BB3F5BF7F04D94FF4ED718F
:103A80002C48FDF711FEA26A082A04D84FF4AA7345
:103A9000D340D80704D440F2DB112648FDF704FEDA
:103AA000E36A023B0D2B04D94FF4EE712148FDF778
:103AB000FBFD00232B60FEF775F81C4E07463368AC
:103AC00099011ED4226AE3691343626A43EA8213AE
:103AD000E26A43EA0263A26A144C5208013A43EADA
:103AE0000243736001232B60FEF75CF805462368F0
:103AF0009A013FF552AEFEF755F8401B0228F6D961
:103B000083E6FEF74FF8C01B0228D8D97DE60023D4
:103B10002B60FEF747F8044633689B017FF53DAE06
:103B2000FEF740F8001B0228F6D96EE60038024086
:103B3000600047428F710008134908B58B6803F095
:103B40000C03042B03D0082B03D0104808BD1048E9
:103B500008BD4A684B68496813F4800314BF0C48D9
:103B60000A48C1F3881118BF002302F03F02A1FBED
:103B70000001FCF787FF044B5B68C3F3014301338B
:103B80005B00B0FBF3F008BD003802400024F400F5
:103B900040787D012DE9F0410D46044610B9012021
:103BA000BDE8F0810368013B0E2B04D94FF410717E
:103BB0006D48FDF779FD0F2D04D940F241216A4887
:103BC000FDF772FD694B1A6802F00F0295423DD86D
:103BD0002268960742D42368D9076CD4634B1A68CD
:103BE00002F00F029542C0F09C8023685A0700F152
:103BF000A18023681B0718D5236933F480520CD0A9
:103C000023F40062B2F5A05F07D0B3F5C05F04D023
:103C10004FF42C715448FDF747FD554A21699368CC
:103C200023F4604343EAC1039360FFF785FF504BE1
:103C3000504A9B68C3F30313D35CD8404E4B1860C3
:103C40000020FDF765FF0020BDE8F081EAB21A70A0
:103C50001B6803F00F039D42A1D1B9E7444B12F05A
:103C6000040F1EBF996841F4E0519960100742BFEC
:103C70009A6842F460429A60A36833F0800212D0DE
:103C800023F02002902A0ED023F04002A02A0AD06E
:103C900023F01002C02A06D0F02B04D04FF4197183
:103CA0003148FDF701FD324AA168936823F0F00323
:103CB0000B4393608FE76368032B04D940F26B21B9
:103CC0002948FDF7F1FC6268294B012A1FD11B68C6
:103CD00013F4003F3FF463AF254EB36823F00303B2
:103CE0001343B360FDF75EFF41F288380746B368BF
:103CF000626803F00C03B3EB820F3FF46FAFFDF784
:103D000051FFC01B4045F2D90320BDE8F081911E50
:103D100001291B6802D813F0007FDBE713F0020FC4
:103D2000D8E7EAB21A701B6803F00F039D427FF4D4
:103D300036AF5AE7E36833F480520CD023F40062C4
:103D4000B2F5A05F07D0B3F5C05F04D040F2A9215F
:103D50000548FDF7A9FC064AE168936823F4E0539F
:103D60000B43936045E700BF8F710008003C0240A1
:103D7000003802405870000800000020044B054A3B
:103D80009B68C3F38223D35C034A1068D840704712
:103D9000003802406870000800000020044B054A0B
:103DA0009B68C3F34233D35C034A1068D840704722
:103DB000003802406870000800000020036A23F009
:103DC00001032DE9F0410362056AD0F80480866999
:103DD0000B6826F073061E438B6825F002051D4311
:103DE0001F4B984204460F4603D003F58063984268
:103DF0002ED1FB6833F0080304D041F2ED6119487D
:103E0000FDF752FCFB6825F008051D43144B9C424E
:103E100025F0040503D003F580639C4218D1BB69EB
:103E200033F4007304D041F2FA610E48FDF73CFC14
:103E30007B6933F4807304D041F2FB610948FDF7DC
:103E400033FC7B69BA6928F44078134343EA0808D5
:103E50007B68C4F80480A66163632562BDE8F081D5
:103E600000000140C7710008036A23F480732DE944
:103E7000F0410362056AD0F80480C6690B6826F039
:103E800073061E438B6825F4007545EA0325204B15
:103E9000984204460F4603D003F5806398422FD121
:103EA000FB6833F0080304D041F283711948FDF731
:103EB000FBFBFB6825F4006545EA0325144B9C4297
:103EC00025F4806503D003F580639C4218D1BB695B
:103ED00033F4007304D041F290710E48FDF7E4FB17
:103EE0007B6933F4807304D041F291710948FDF786
:103EF000DBFB7B69BA6928F44058134348EA03188E
:103F00007B68C4F80480E661E3632562BDE8F08164
:103F100000000140C7710008036A23F480532DE9B3
:103F2000F0410362056AD0F80480C7690B6827F482
:103F3000E64747EA03278B6825F4005545EA033531
:103F40000F4B984204460E4603D003F58063984217
:103F50000DD1736933F4807304D041F2CF710948F5
:103F6000FDF7A2FB736928F4804848EA8318736858
:103F7000C4F80480E76123642562BDE8F08100BFD6
:103F800000000140C77100080368264A934210B53B
:103F9000044637D0B3F1804F34D0A2F57C4293422F
:103FA00030D002F5806293422CD002F580629342B9
:103FB00028D002F58062934224D002F580629342B9
:103FC00020D002F5704293421CD002F57052934209
:103FD00018D002F58062934214D002F580629342B9
:103FE00010D0A2F5983293420CD002F58062934231
:103FF00008D002F58062934204D040F2B1110A4821
:10400000FDF752FB2368DA6842F00102DA609A6831
:1040100002F00702062A1EBF1A6842F001021A6067
:10402000002010BD00000140C771000870477047B4
:10403000704770477047704703681A69910710B559
:1040400004460ED5DA6892070BD56FF002021A61AA
:104050009B6901229B07027777D0FFF7EAFF0023D5
:10406000237723681A69500710D5DA6851070DD5F0
:104070006FF004021A619B69022213F4407F2277D9
:10408000204668D0FFF7D5FF0023237723681A69FD
:1040900012070FD5DA6810070CD56FF008021A6105
:1040A000DB6904229907227720465AD0FFF7C1FF27
:1040B0000023237723681A69D20610D5DA68D00660
:1040C0000DD56FF010021A61DB69082213F4407FEE
:1040D000227720464BD0FFF7ACFF002323772368DD
:1040E0001A69D10708D5DA68D20705D56FF0010241
:1040F0001A612046FDF7C0FC23681A69100608D52E
:10410000DA68110605D56FF080021A61204601F0C9
:104110006AF823681A69520608D5DA68500605D588
:104120006FF040021A612046FFF785FF23681A6985
:10413000910622D5DA6892061FD56FF0200220463C
:104140001A61BDE8104001F04DB8FFF771FF20463D
:10415000FFF770FF83E7FFF76BFF2046FFF76AFF6B
:1041600092E7FFF765FF2046FFF764FFA0E7FFF740
:104170005FFF2046FFF75EFFAFE710BD304A0368E0
:10418000904212D0B0F1804F0FD0A2F57C42904205
:104190000BD002F58062904207D002F58062904217
:1041A00003D002F57842904219D14A6823F0700397
:1041B0001343234A904229D0B0F1804F26D0A2F574
:1041C0007C42904222D002F5806290421ED002F5DD
:1041D000806290421AD002F57842904216D0194A75
:1041E000904213D002F5806290420FD002F58062B7
:1041F00090420BD0A2F59832904207D002F580622F
:10420000904203D002F58062904203D1CA6823F441
:10421000407313434A6923F08003134303608B68A0
:10422000C3620B688362064B984203D003F5806338
:10423000984201D10B69036301234361704700BFBA
:10424000000001400040014010B50446002875D030
:1042500003683B4A934237D0B3F1804F34D0A2F584
:104260007C42934230D002F5806293422CD002F51A
:104270008062934228D002F58062934224D002F5F6
:104280008062934220D002F5704293421CD002F526
:104290007052934218D002F58062934214D002F516
:1042A0008062934210D0A2F5983293420CD002F56E
:1042B0008062934208D002F58062934204D04FF4AA
:1042C00085712048FDF7F0F9A36833F010020AD099
:1042D00023F04002202A06D0402B04D040F20B11DC
:1042E0001848FDF7E1F9236933F4807207D0B3F57C
:1042F000007F04D04FF486711248FDF7D5F9A36909
:1043000033F0800304D040F20D110E48FDF7CCF9D4
:1043100094F83D3003F0FF0223B984F83C20204696
:10432000FDF78CFA022384F83D302068211DFFF749
:1043300025FF012384F83D30002010BD012010BD71
:1043400000000140C771000810B50446002875D070
:1043500003683B4A934237D0B3F1804F34D0A2F583
:104360007C42934230D002F5806293422CD002F519
:104370008062934228D002F58062934224D002F5F5
:104380008062934220D002F5704293421CD002F525
:104390007052934218D002F58062934214D002F515
:1043A0008062934210D0A2F5983293420CD002F56D
:1043B0008062934208D002F58062934204D040F2BA
:1043C00056212048FDF770F9A36833F010020AD097
:1043D00023F04002202A06D0402B04D040F257217F
:1043E0001848FDF761F9236933F4807207D0B3F5FB
:1043F000007F04D04FF416711248FDF755F9A369F8
:1044000033F0800304D040F259210E48FDF74CF9F7
:1044100094F83D3003F0FF0223B984F83C20204695
:10442000FFF704FE022384F83D302068211DFFF7CA
:10443000A5FE012384F83D30002010BD012010BDF1
:1044400000000140C771000810B50446002875D06F
:1044500003683B4A934237D0B3F1804F34D0A2F582
:104460007C42934230D002F5806293422CD002F518
:104470008062934228D002F58062934224D002F5F4
:104480008062934220D002F5704293421CD002F524
:104490007052934218D002F58062934214D002F514
:1044A0008062934210D0A2F5983293420CD002F56C
:1044B0008062934208D002F58062934204D040F2B9
:1044C00093412048FDF7F0F8A36833F010020AD0BA
:1044D00023F04002202A06D0402B04D040F2944121
:1044E0001848FDF7E1F8236933F4807207D0B3F57B
:1044F000007F04D040F295411248FDF7D5F8A3693A
:1045000033F0800304D040F296410E48FDF7CCF81A
:1045100094F83D3003F0FF0223B984F83C20204694
:10452000FFF785FD022384F83D302068211DFFF749
:1045300025FE012384F83D30002010BD012010BD70
:1045400000000140C7710008036A23F010032DE941
:10455000F0410362056AD0F8048086690B6826F48E
:10456000E64646EA03268B6825F0200545EA031552
:10457000204B984204460F4603D003F580639842CF
:104580002FD1FB6833F0080304D041F238711A4888
:10459000FDF78AF8FB6825F0800545EA0315154B01
:1045A0009C4225F0400503D003F580639C4218D15E
:1045B000BB6933F4007304D041F246710E48FDF735
:1045C00073F87B6933F4807304D041F247710A4871
:1045D000FDF76AF87B69BA6928F44068134348EA32
:1045E00083087B68C4F80480A661A3632562BDE8E4
:1045F000F08100BF00000140C771000832F00C03D9
:1046000070B504460D46164606D03C2A04D040F646
:1046100032516C48FDF748F82B6823F0100233F054
:10462000300306D0402A04D040F633516548FDF7E8
:104630003BF8AB6833F0020304D040F634516148D4
:10464000FDF732F894F83C30012B4FF002004DD0CA
:10465000012384F83C3084F83D000C2E40D8DFE87C
:1046600006F0073F3F3F463F3F3F6F3F3F3F9000D1
:104670002368554A93422FD0B3F1804F2CD0A2F536
:104680007C42934228D002F58062934224D002F506
:104690008062934220D002F5784293421CD002F50A
:1046A0007052934218D002F58062934214D002F502
:1046B0008062934210D0A2F5983293420CD002F55A
:1046C0008062934208D002F58062934204D04FF496
:1046D00054613C48FCF7E8FF29462068FFF76EFB71
:1046E0000123002084F83D3084F83C0070BD23682D
:1046F000354A93421FD0B3F1804F1CD0A2F57C42C3
:10470000934218D002F58062934214D002F5806281
:10471000934210D002F5784293420CD002F57052C9
:10472000934208D0A2F59432934204D040F64A5105
:104730002448FCF7B9FF29462068FFF705FFCFE7BB
:104740002368214A934217D0B3F1804F14D0A2F5C9
:104750007C42934210D002F5806293420CD002F565
:104760008062934208D002F57842934204D040F62A
:1047700054511448FCF798FF29462068FFF774FB52
:10478000AEE72368104A934217D0B3F1804F14D09C
:10479000A2F57C42934210D002F5806293420CD085
:1047A00002F58062934208D002F57842934204D029
:1047B00040F65E510348FCF777FF29462068FFF773
:1047C000ABFB8DE7C77100080000014032F00C031D
:1047D00070B504460D46164606D03C2A04D040F675
:1047E000E3518948FCF760FF2B6823F01003602B2E
:1047F00004D040F6E4518448FCF756FFAB6833F030
:10480000020304D040F6E5517F48FCF74DFF2B69C9
:1048100033F0040304D040F6E6517B48FCF744FF34
:1048200094F83C30012B4FF002005AD0012384F859
:104830003C3084F83D000C2E4DD8DFE806F0074CE4
:104840004C4C534C4C4C894C4C4CB70023686F4A31
:1048500093422FD0B3F1804F2CD0A2F57C429342EB
:1048600028D002F58062934224D002F58062934200
:1048700020D002F5784293421CD002F57052934248
:1048800018D002F58062934214D002F58062934200
:1048900010D0A2F5983293420CD002F58062934278
:1048A00008D002F58062934204D040F6F251564897
:1048B000FCF7FAFE29462068FFF780FA2368296989
:1048C0009A6942F008029A619A6922F004029A6198
:1048D0009A690A439A610123002084F83D3084F8E4
:1048E0003C0070BD2368494A93421FD0B3F1804F0A
:1048F0001CD0A2F57C42934218D002F5806293420C
:1049000014D002F58062934210D002F578429342AF
:104910000CD002F57052934208D0A2F59432934223
:1049200004D040F603613848FCF7BEFE29462068F3
:10493000FFF70AFE236829699A6942F400629A61C6
:104940009A6922F480629A619A6942EA0122C1E777
:1049500023682E4A934217D0B3F1804F14D0A2F5AA
:104960007C42934210D002F5806293420CD002F553
:104970008062934208D002F57842934204D040F618
:1049800014612148FCF790FE29462068FFF76CFA75
:1049900023682969DA6942F00802DA61DA6922F0EB
:1049A0000402DA61DA690A43DA6194E72368174A94
:1049B000934217D0B3F1804F14D0A2F57C429342BA
:1049C00010D002F5806293420CD002F580629342CF
:1049D00008D002F57842934204D040F625610A4897
:1049E000FCF762FE29462068FFF796FA23682969DA
:1049F000DA6942F40062DA61DA6922F48062DA612B
:104A0000DA6942EA0122CFE7C771000800000140DD
:104A100010B584680A4324F47F4442EA0323234305
:104A2000836010BD90F83C30012B70B505460C46F4
:104A30004FF002002BD0012385F83C300B6885F83D
:104A40003D00B3F5805F0CD0B3F5005F09D033F0C3
:104A5000300306D0402B04D041F277119D48FCF77B
:104A600023FE2B689A6822F47F4222F077029A6034
:104A70002268402A00F0D2813BD8102A0CD007D8F7
:104A800052B10123002085F83D3085F83C0070BD0F
:104A9000202A01D0302AF4D18F4A93421FD0B3F19B
:104AA000804F1CD0A2F57C42934218D002F5806260
:104AB000934214D002F58062934210D002F57842FE
:104AC00093420CD002F57052934208D0A2F5943272
:104AD000934204D041F2E9117E48FCF7E5FD2968D4
:104AE00023688A6843F0070322F0700213438B6047
:104AF000C7E7702A00F0F28056D8502A00F03C81B7
:104B0000602ABED1744A93421FD0B3F1804F1CD0AB
:104B1000A2F57C42934218D002F58062934214D0F1
:104B200002F58062934210D002F5784293420CD095
:104B300002F57052934208D0A2F59432934204D009
:104B400041F2C6116348FCF7AFFD6368B3F5004F4F
:104B500009D033F0020206D00A2B04D041F2C91169
:104B60005C48FCF7A1FDE3680F2B04D941F2CA11A0
:104B70005848FCF799FD2B686668186AE46820F0CD
:104B80001000186299691A6A21F4704122F0A0029B
:104B900042EA061241EA043199611A629A6822F0E7
:104BA000700242F0670237E1B2F5805F48D0B2F59B
:104BB000005F7FF466AF484A934217D0B3F1804F4D
:104BC00014D0A2F57C42934210D002F58062934249
:104BD0000CD002F58062934208D002F578429342ED
:104BE00004D041F2A2113B48FCF75EFDA36833F408
:104BF000405304D041F2A5113648FCF755FD6368D7
:104C0000B3F5004F09D033F0020206D00A2B04D0CE
:104C100041F2A6112F48FCF747FDE3680F2B04D99A
:104C200041F2A7112B48FCF73FFDE3686268A168D9
:104C30002868FFF7EDFE2A68936843F4804399E003
:104C4000254A93423FF41DAFB3F1804F3FF419AFB3
:104C5000A2F57C4293423FF414AF02F58062934286
:104C60003FF40FAF02F5806293423FF40AAF02F5C2
:104C7000806293423FF405AF02F5806293423FF4B5
:104C800000AF02F5704293423FF4FBAE02F5705262
:104C900093423FF4F6AE02F5806293423FF4F1AEE8
:104CA00002F5806293423FF4ECAEA2F59832934253
:104CB0003FF4E7AE02F5806293423FF4E2AE02F5C4
:104CC000806293423FF4DDAE41F283110148FCF76C
:104CD000EBFCD6E6C771000800000140784A934219
:104CE0001FD0B3F1804F1CD0A2F57C42934218D064
:104CF00002F58062934214D002F58062934210D094
:104D000002F5784293420CD002F57052934208D0DB
:104D1000A2F59432934204D041F28A116948FCF71B
:104D2000C3FCA36833F4405304D041F28D116548AD
:104D3000FCF7BAFC6368B3F5004F09D033F0020208
:104D400006D00A2B04D041F28E115E48FCF7ACFC71
:104D5000E3680F2B04D941F28F115A48FCF7A4FCE9
:104D6000E3686268A1682868FFF752FE2A689368C2
:104D700043F07703936084E6514A93421FD0B3F126
:104D8000804F1CD0A2F57C42934218D002F580627D
:104D9000934214D002F58062934210D002F578421B
:104DA00093420CD002F57052934208D0A2F594328F
:104DB000934204D041F2B6114248FCF775FC636897
:104DC000B3F5004F09D033F0020206D00A2B04D00D
:104DD00041F2B9113B48FCF767FCE3680F2B04D99B
:104DE00041F2BA113748FCF75FFC2B686168186A1A
:104DF000E6681C6A24F001041C629A6920F00A002B
:104E000022F0F00242EA061201439A6119629A689E
:104E100022F0700242F057029A6032E6284A93422A
:104E20001FD0B3F1804F1CD0A2F57C42934218D022
:104E300002F58062934214D002F58062934210D052
:104E400002F5784293420CD002F57052934208D09A
:104E5000A2F59432934204D041F2D6111948FCF7DE
:104E600023FC6368B3F5004F09D033F0020206D08B
:104E70000A2B04D041F2D9111248FCF715FCE36863
:104E80000F2B04D941F2DA110E48FCF70DFC2B6808
:104E90006168186AE6681C6A24F001041C629A6959
:104EA00020F00A0022F0F00242EA061201439A6161
:104EB00019629A6822F0700242F04702ACE700BF24
:104EC00000000140C7710008274B984270B50446A6
:104ED0000D4616462FD0B0F1804F2CD0A3F57C4361
:104EE000984228D003F58063984224D003F580636C
:104EF000984220D003F5784398421CD003F57053B4
:104F0000984218D003F58063984214D003F580636B
:104F1000984210D0A3F5983398420CD003F58063E3
:104F2000984208D003F58063984204D041F6B71147
:104F30000E48FCF7B9FB35F00C0306D03C2D04D02D
:104F400041F6B8110948FCF7AFFB236A05F01F05CD
:104F50000122AA4023EA02032362236A06FA05F526
:104F60001D43256270BD00BF00000140C7710008ED
:104F700038B52D4A0368934205460C4612D0B3F16A
:104F8000804F0FD0A2F57C4293420BD002F5806295
:104F9000934207D002F58062934203D002F5784233
:104FA000934202D134F00C0205D0204A93421AD128
:104FB00034F004031CD1012221462868FFF784FF46
:104FC0002B68194A934229D002F58062934225D07A
:104FD0009A6802F00702062A03D01A6842F001021A
:104FE0001A60002038BD124A934207D1002CE2D04B
:104FF00040F20B510F48FCF757FBDCE70E4A934297
:10500000F4D0A2F598329342D2D002F58062934256
:10501000ECD002F580629342E8D0E9E75A6C42F4A2
:1050200000425A64D4E700BF000001400040014044
:1050300000440140C77100080048014038B52B4AC0
:105040000368934204460D461FD0B3F1804F1CD035
:10505000A2F57C42934218D002F58062934214D0AC
:1050600002F58062934210D002F5806293420CD028
:1050700002F58062934208D002F57042934204D058
:1050800040F261611A48FCF70FFB2B6833F03003E4
:1050900006D0402B04D040F262611548FCF704FBB7
:1050A0006B6833F0800304D040F263611048FCF772
:1050B000FBFA94F83C30012B4FF0020014D0216829
:1050C00084F83D004A6828688B6822F07002024329
:1050D00068684A6023F0800303438B60002001234B
:1050E00084F83D3084F83C0038BD00BF000001402A
:1050F000FF71000838B5394A0368934204460D46EB
:1051000008D002F58062934204D04FF4D361344852
:10511000FCF7CAFA2B6833F4006304D040F29961BB
:105120002F48FCF7C1FA6B6833F4806304D040F277
:105130009A612B48FCF7B8FAAB6833F4407304D09B
:1051400040F29B612648FCF7AFFAEB68FF2B04D9CD
:1051500040F29C612248FCF7A7FA2B6933F4805394
:1051600004D040F29D611E48FCF79EFA6B6933F44F
:10517000005304D040F29E611948FCF795FAEB69A0
:1051800033F4804304D040F29F611548FCF78CFA59
:1051900094F83C30012B1ED0EB68AA6823F44073CE
:1051A00013436A6823F4806313432A6823F400637B
:1051B00013432A6923F4805313436A6923F4005389
:1051C0001343EA6923F480431343226800205364A5
:1051D00084F83C0038BD022038BD00BF000001400B
:1051E000FF710008704770470368DA6822F4907214
:1051F000DA605A6922F001025A61202380F83A30BD
:105200007047000042689E4B9A422DE9F0470446E1
:1052100004D940F6E5319B48FCF746FAE36833F4DD
:10522000005304D040F6E6319648FCF73DFA236976
:1052300033F4806207D0B3F5C06F04D040F6E73195
:105240009048FCF731FA63694FF6F372134200D1CC
:1052500023B940F6E8318B48FCF726FA2668E26865
:1052600033692069E16923F4405313433361A36830
:10527000F2680343606922F41642034322F00C02F1
:105280000B431343F3607369A26923F44073134320
:10529000B1F5004F73617C4B7CD19E4203D003F586
:1052A00080639E4244D1FEF779FD192505FB00F38A
:1052B00060684FF064094000B3FBF0F3B3FBF9F30F
:1052C0004FEA0318FEF76AFD636868435B00B0FBB2
:1052D000F3F7FEF763FD636868435B00B0FBF3F32D
:1052E000B3FBF9F309FB1373DB003233B3FBF9F3C0
:1052F0005B0003F4F877FEF751FD626868435200E3
:10530000B0FBF2FAFEF74AFD636868435B00B0FB4E
:10531000F3F3B3FBF9F309FB13A3DB003233B3FB65
:10532000F9F303F0070343443B44B360BDE8F0875F
:10533000FEF724FD192505FB00F360684FF06409B2
:105340004000B3FBF0F3B3FBF9F34FEA0318FEF7A9
:1053500015FD636868435B00B0FBF3F7FEF70EFDD5
:10536000636868435B00B0FBF3F3B3FBF9F309FB3D
:105370001373DB003233B3FBF9F35B0003F4F8770C
:10538000FEF7FCFC626868435200B0FBF2FAFEF7DD
:10539000F5FCB9E79E4202D03C4B9E4240D1FEF75D
:1053A000FDFC676819254FF0640905FB00F3BF0099
:1053B000B3FBF7F3B3FBF9F31F01FEF7EFFC6368F0
:1053C00068439B00B0FBF3F8FEF7E8FC63686843B2
:1053D0009B00B0FBF3F3B3FBF9F309FB13831B0151
:1053E0003233B3FBF9F303F0F008FEF7D7FC626841
:1053F00068439200B0FBF2FAFEF7D0FC63686843A2
:105400009B00B0FBF3F3B3FBF9F309FB13A31B0100
:105410003233B3FBF9F303F00F0343EA080383E7E6
:10542000FEF7ACFC676819254FF0640905FB00F333
:10543000BF00B3FBF7F3B3FBF9F31F01FEF79EFCCC
:10544000636868439B00B0FBF3F8FEF797FC636862
:1054500068439B00B0FBF3F3B3FBF9F309FB138341
:105460001B013233B3FBF9F303F0F008FEF786FCBF
:10547000626868439200B0FBF2FAFEF77FFCBDE77A
:10548000A037A0003A72000800100140001401404B
:10549000F8B504460E4617461D4621680B6836EAE5
:1054A000030301D10020F8BD6B1CF7D095B9236828
:1054B000DA6822F4D072DA605A6922F001025A6185
:1054C000202384F8393084F83A30002384F83830C7
:1054D0000320F8BDFCF766FBC01B8542DDD2E6E782
:1054E00010B5044600287CD0816903683E4A002933
:1054F00057D0934210D0A2F54C4293420CD002F503
:105500008062934208D002F54C42934204D040F2AC
:1055100049113648FCF7C8F8A36933F4407304D046
:105520004FF4A5713148FCF7BFF8A36833F48053FA
:1055300004D04FF4A8712D48FCF7B6F8E36933F4B2
:10554000004304D040F251112848FCF7ADF894F81C
:10555000393003F0FF0223B984F838202046FCF7E5
:10556000C9F92268242384F83930D36823F400531E
:10557000D3602046FFF746FE23681A6922F4904262
:105580001A615A6922F02A025A61DA6842F400521A
:10559000DA6000202023E06384F8393084F83A3060
:1055A00010BD9342C1D0124A9342BED002F5806230
:1055B0009342BAD002F580629342B6D002F580627F
:1055C0009342B2D002F544429342AED0A2F51C42BF
:1055D0009342AAD002F580629342A6D04FF4A771FD
:1055E000A0E7012010BD00BF001001403A72000882
:1055F000004400402DE9F0411F4690F83930202B3F
:1056000004460D4690464FD100294AD0002A48D082
:1056100090F83830012B47D0012380F83830002330
:10562000C363212380F83930FCF7BCFAA4F8248046
:105630000646A4F82680E38C9BB26BB93B46324603
:1056400040212046FFF724FFB0B9202384F83930E9
:1056500084F83800BDE8F081E38C013B9BB2E38421
:10566000A368B3F5805F32463B464FF08001204689
:105670000ED1FFF70DFF10B10320BDE8F0812B889C
:105680002268C3F308035360236943B90235D2E7A4
:10569000FFF7FEFE0028EFD123682A785A60013513
:1056A000C9E70120BDE8F0810220BDE8F08190F853
:1056B0003A30202B20D1E9B1E2B190F83830012BFB
:1056C0001AD0C285828500232222C36380F83A2043
:1056D00002688162D16880F8383041F48071D1600D
:1056E000516941F001015161D16841F02001D1605F
:1056F000184670470120704702207047704790F8A5
:105700003A30222B10B536D1836801690268B3F5AF
:10571000805F836A23D15268E9B9C2F3080223F893
:10572000022B8362C48D013CA4B2C4858CB903688A
:10573000DA6822F02002DA60DA6822F48072DA6035
:105740005A6922F001025A61202380F83A30FBF7AF
:1057500061FC002010BDD2B223F8012BE1E721B992
:10576000591C526881621A70DCE75268591C8162C8
:1057700002F07F02F7E7022010BD704703681A6845
:10578000D96870B5160704465D6907D196065AD5E3
:105790008D0658D5BDE87040FFF7B1BF15F0010583
:1057A00002D111F4907F4ED0D30705D5CE0542BF6C
:1057B000E36B43F00103E363500704D51DB1E36BD2
:1057C00043F00203E363930704D51DB1E36B43F099
:1057D0000403E363160704D51DB1E36B43F008032C
:1057E000E363E36B002B66D0950604D5880602D5EB
:1057F0002046FFF784FF23685D69E26B11072046AE
:1058000002D415F040051AD0FFF7EEFC23685A6960
:10581000520610D55A69606B22F040025A6150B1AD
:10582000254B0365FCF716FD002844D0606BBDE8EE
:105830007040036D18472046FFF79FFF70BDFFF7CC
:105840009CFFE56370BD160627D50D0625D594F897
:105850003920212A2FD1A268B2F5805F226A17D1A0
:105860001188C1F308015960216979B902322262B5
:10587000E28C013A92B2E284EAB9DA6822F080025C
:10588000DA60DA6842F04002DA6070BD0132EEE7B9
:10589000511C216212785A60EAE750060BD54A067D
:1058A00009D5DA6822F04002DA60202384F8393022
:1058B0002046FFF723FF70BDBD58000808B5806B78
:1058C0000023C385C384FFF758FF08BDDFF834D039
:1058D000002103E00C4B5B58435004310B480C4B48
:1058E00042189A42F6D30B4A02E0002342F8043BE6
:1058F000094B9A42F9D3FCF799F800F01BF8FBF733
:1059000029FD7047000003202874000800000020D3
:10591000DC010020DC01002074070020FEE70A22E1
:10592000002100F067BA0000014B1868704700BF03
:105930000C00002070B50D4E0D4CA41BA4100025CA
:10594000A54209D10B4E0C4C01F01AFBA41BA4106C
:105950000025A54205D170BD56F825309847013580
:10596000EEE756F8253098470135F2E72074000835
:1059700020740008207400082474000802440346C0
:10598000934200D1704703F8011BF9E70FB40A4BAB
:1059900013B51C6824B1A36913B9204600F0F2FBCB
:1059A00005AB049AA1680193204600F01DFF02B0E8
:1059B000BDE8104004B070470C00002070B50E46E2
:1059C000054618B183690BB900F0DCFBAB69AC6824
:1059D00013B9284600F0D6FB234B9C4217D16C68C4
:1059E000A3891B071DD52369DBB1013EA36816F807
:1059F000011F013BA360E9B9002B2EDA22460A21E0
:105A0000284600F00DFA013011D00A2070BD174B66
:105A10009C4201D1AC68E3E7154B9C4208BFEC689F
:105A2000DEE72146284600F04DFA0028DDD04FF091
:105A3000FF3070BD002B04DAA269934206DB0A290D
:105A400004D023685A1C22601970CFE722462846EA
:105A500000F0E6F90130C9D1E9E723680A205A1CB1
:105A60002260187070BD00BF98720008B8720008FC
:105A700078720008024B01461868FFF79FBF00BF0D
:105A80000C0000202DE9F7431D46514B1E680446CB
:105A90000F46904626B1B36913B9304600F072FB49
:105AA0004C4B9C4252D17468B8F1020F06D0B8F149
:105AB000010F00F28980002DC0F286802146304619
:105AC00000F0F6FA616B41B104F14403994202D04F
:105AD000304600F063FC002363630023A36163602E
